:100000000C9434000C9449000C9449000C94490061
:100010000C9449000C9449000C9449000C9449003C
:100020000C9449000C9449000C9449000C9449002C
:100030000C9449000C9449000C9449000C9449001C
:100040000C9449000C9449000C9449000C9449000C
:100050000C9449000C9449000C9449000C944900FC
:100060000C9449000C94490011241FBECFEFD8E036
:10007000DEBFCDBF11E0A0E0B1E0E2E7F1E002C0F9
:1000800005900D92AC30B107D9F70E9485000C9411
:10009000B7000C9400002A98089508952A9A0895AC
:1000A00008950F931F93CF93DF93EC018B01E881A9
:1000B000F981309731F00480F581E02D309709F017
:1000C000099508831983D801ED91FD91309731F09E
:1000D000CE01DF91CF911F910F910994DF91CF91C4
:1000E0001F910F910895FC012281211521F060E0FC
:1000F00071E00C9451000895FC012281211521F03A
:1001000066E071E00C945100089500D000D00F9289
:10011000CDB7DEB7229A2098289A1B8266E071E05C
:100120008E010F5F1F4FC8010E94510090E00C83A9
:100130001D8311E083B1082F0170802F8127912743
:1001400089238B83E981FA81309741F00280F38122
:10015000E02D309719F08C819D810995902F912782
:10016000E3ECF9E03197F1F700C00000E3CFF89439
:02017000FFCFBF
:0C0172004E007C0050004B0073004D005C
:00000001FF
